:020000020000FC
:0600000047C01895189599
:10008C000C9481000FEF0CB90DB92598249A079A9E
:10009C000F9A1ED164D13ED100E008B9809800912E
:1000AC0090040260009390047894B8E2A0E004E419
:1000BC000D9305E70D9304E70D9309E70D9303E406
:1000CC000D9309E70D9303E60D930CE60D9305E6EE
:1000DC000D930AE30D9300E20D9300E30D9300E3FF
:1000EC000D9300E30D9305E20D9300E20C93009148
:1000FC00890400FDFCCFF8940F930FB70F93009178
:10010C00890400FD05D00F910FBF0F9178941895BD
:10011C000AB1302F307F369536953695369527D1E6
:10012C003334C1F03134A1F008D03C932C982C9A84
:10013C00F1D001E000938904DACF52E0B8E2ACE0F0
:10014C00D8E2CDE069916D935A95E1F7E3D008952B
:10015C0056C0ABCFB8E2ACE07C91705344E6749FD0
:10016C00702D8D9180534AE0849F802D780F9C9147
:10017C009053790F953630F4492F940F4695940F80
:10018C00492F2BC009E40D930EE60D9306E70D9352
:10019C0001E60D930CE60D9309E60D9304E60D9321
:1001AC0000E20D9303E40D9309E70D9303E60D9321
:1001BC000CE60D9305E60D9300E20D9300E20D9312
:1001CC0000E20C93A7D06FEF7FEF2BD02AD029D071
:1001DC0028D001E000938904BCCF1FEF141B4030E2
:1001EC0041F0689A4A9500000000E1F7103031F0B8
:1001FC0068981A9500000000E1F700C078CFB8E2CB
:10020C00ACE000E30D9300E30D9300E30D9382D07B
:10021C006ECF000000008F938FE08A95F1F78F91DD
:10022C000895F7DF6A95E9F77A95D9F7089560E0B4
:10023C0074E0F7DF08950F93079A0F9A049A0C98BD
:10024C00069A0E9A079A0F9A409A489A03E20093DC
:10025C00C00807E00093C10805E5489A0F98000014
:10026C000000000000000093C4080091C30807FFC1
:10027C00FCCF0F9A0F9108950F930091C30807FFBD
:10028C00FCCF0091C40848980F980F910000000013
:10029C00000000000093C4080091C30807FFFCCFC6
:1002AC000F9A08950F930091C30807FFFCCF00919C
:1002BC00C408489A0F980F9100000000000000003D
:1002CC000093C4080091C30807FFFCCF0F9A089550
:1002DC00B2DFADDF09E3D0DF9CDF09E3CDDF99DFCF
:1002EC000EE1CADF96DF0FE7C7DF93DF05E5C4DF5A
:1002FC0090DF0CE6C1DF9BDF9ADF99DF98DF97DF99
:10030C000CE0BADF86DF06E0B7DF83DF089501E09B
:10031C00B3DF7FDF90DF40E14F93F8E2E0E000E8ED
:10032C00ABDF77DF0191BEDF74DF4A95D9F74F91D0
:10033C004F93F8E2E0E100E99FDF6BDF0191B2DF60
:10034C0068DF4A95D9F74F91F8E2E0E200EA94DFD2
:10035C0060DF0191A7DF5DDF4A95D9F7089590E33F
:10036C00A0E2F8E2E0E0A1939A95E9F708953F70D6
:10037C00303118F0889430E00895F3E0E6E920E09D
:10038C00E30FF21F3491089408953132334634351B
:0A039C0036453738394441304243FA
:00000001FF
